:02000002F0000C
:100154002F6C69622F6C642D6C696E75782D7269D1
:1001640073637633322D696C703332642E736F2E61
:02017400310058
:10017800040000001000000001000000474E550078
:10018800000000000500000004000000000000005E
:100198000100000003000000020000000000000051
:0801A80000000000010000004E
:1001B0000200000001000000010000000500000036
:1001C0000040030101000000000000002E4E3DF63B
:0401D000197E0A8703
:1001D400000000000000000000000000000000001B
:1001E4000100000090020100000000001200000065
:1001F4002800000000280100000000001000F1FFAA
:10020400005F5F6C6962635F73746172745F6D61D8
:10021400696E006C6962632E736F2E3600474C4919
:1002240042435F322E3333005F5F676C6F62616CF1
:0A0234005F706F696E74657224003C
:06023E00000002000100B7
:100244000100010013000000100000000000000085
:10025400B3919606000002001D000000000000009B
:0C0264000820010005010000000000005F
:10027000972300003303C34103AE03D9130343FDA7
:10028000938203D91353230083A2420067000E0018
:10029000172E0000032E8ED767030E0013000000F8
:1002A0002D20AA8717050000130565098245500017
:1002B000137101FF970600009386660C1707000074
:1002C000130767110A88E93702909721000093818C
:1002D0006153828000004965496793070500130751
:1002E00007006308F7009307000081C713050500A6
:1002F0008287828049659307050049679305070057
:100300009D8D93D72540FD81BE95858599C5930721
:10031000000081C71305050082878280411122C435
:1003200083C7818106C689E77D378547238CF180A5
:10033000B24022444101828075BF011122CE0010DB
:100340000327C4FEBA878A07BA9786073E878327A2
:1003500084FEBA97FD172326F4FE232204FE83278A
:1003600084FE85072324F4FE8327C4FEFD1723267D
:10037000F4FE0100724405618280011122CC4AC85A
:1003800017240000130484B817290000130949B882
:100390003309894006CE26CA4EC652C456C21359E6
:1003A0002940630F0900AA892E8AB28A81441C4021
:1003B0005686D2854E85850482971104E31999FEED
:1003C000F2406244D2444249B249224A924A05610B
:0403D0008280828025
:1003D400011B033B1000000001000000CCFEFFFFE6
:0403E40028000000ED
:1003E8001000000000000000037A5200017C0101A7
:1003F8001B0D020010000000180000009CFEFFFF0B
:0C0408002A0000000007010000000000B6
:041F0400CA0201000C
:041F08003803010099
:041F0C001C030100B1
:101F1000010000001300000020000000041F010069
:101F2000210000000400000019000000081F01004B
:101F30001B000000040000001A0000000C1F01003C
:101F40001C000000040000000400000098010100D3
:101F5000F5FEFF6FB0010100050000000402010062
:101F600006000000D40101000A0000003A00000051
:101F70000B00000010000000150000000000000031
:101F80000300000000200100020000000C0000001F
:101F900014000000070000001700000064020100A8
:101FA0000700000064020100080000000C000000AF
:101FB000090000000C000000FEFFFF6F440201005A
:101FC000FFFFFF6F01000000F0FFFF6F3E02010006
:101FD0000000000000000000000000000000000001
:101FE00000000000000000000000000000000000F1
:101FF00000000000000000000000000000000000E1
:10200000FFFFFFFF0000000070020100101F010031
:082010000100020000000000C5
:04000003F00002A067
:00000001FF
